{
  "contractName": "Bank",
  "abi": [
    {
      "inputs": [
        {
          "internalType": "address",
          "name": "usdcAddress",
          "type": "address"
        },
        {
          "internalType": "uint256",
          "name": "initialConversionNominator",
          "type": "uint256"
        },
        {
          "internalType": "uint256",
          "name": "initialConversionDenominator",
          "type": "uint256"
        }
      ],
      "stateMutability": "nonpayable",
      "type": "constructor"
    },
    {
      "anonymous": false,
      "inputs": [
        {
          "indexed": false,
          "internalType": "address",
          "name": "player",
          "type": "address"
        },
        {
          "indexed": false,
          "internalType": "uint256",
          "name": "usdcAmount",
          "type": "uint256"
        },
        {
          "indexed": false,
          "internalType": "uint256",
          "name": "casinoTokenCount",
          "type": "uint256"
        },
        {
          "indexed": false,
          "internalType": "uint256",
          "name": "date",
          "type": "uint256"
        }
      ],
      "name": "BuyIn",
      "type": "event"
    },
    {
      "anonymous": false,
      "inputs": [
        {
          "indexed": false,
          "internalType": "address",
          "name": "player",
          "type": "address"
        },
        {
          "indexed": false,
          "internalType": "uint256",
          "name": "usdcAmount",
          "type": "uint256"
        },
        {
          "indexed": false,
          "internalType": "uint256",
          "name": "casinoTokenCount",
          "type": "uint256"
        },
        {
          "indexed": false,
          "internalType": "uint256",
          "name": "date",
          "type": "uint256"
        }
      ],
      "name": "CashOut",
      "type": "event"
    },
    {
      "inputs": [],
      "name": "admin",
      "outputs": [
        {
          "internalType": "address",
          "name": "",
          "type": "address"
        }
      ],
      "stateMutability": "view",
      "type": "function"
    },
    {
      "inputs": [],
      "name": "casinoToken",
      "outputs": [
        {
          "internalType": "contract CasinoToken",
          "name": "",
          "type": "address"
        }
      ],
      "stateMutability": "view",
      "type": "function"
    },
    {
      "inputs": [],
      "name": "conversionDenominator",
      "outputs": [
        {
          "internalType": "uint256",
          "name": "",
          "type": "uint256"
        }
      ],
      "stateMutability": "view",
      "type": "function"
    },
    {
      "inputs": [],
      "name": "conversionNominator",
      "outputs": [
        {
          "internalType": "uint256",
          "name": "",
          "type": "uint256"
        }
      ],
      "stateMutability": "view",
      "type": "function"
    },
    {
      "inputs": [],
      "name": "usdc",
      "outputs": [
        {
          "internalType": "contract IERC20",
          "name": "",
          "type": "address"
        }
      ],
      "stateMutability": "view",
      "type": "function"
    },
    {
      "inputs": [],
      "name": "usdcConversion",
      "outputs": [
        {
          "internalType": "uint256",
          "name": "",
          "type": "uint256"
        }
      ],
      "stateMutability": "view",
      "type": "function"
    },
    {
      "inputs": [
        {
          "internalType": "address",
          "name": "casinoTokenAddress",
          "type": "address"
        }
      ],
      "name": "setCasinoToken",
      "outputs": [],
      "stateMutability": "nonpayable",
      "type": "function"
    },
    {
      "inputs": [],
      "name": "getConversionFactor",
      "outputs": [
        {
          "internalType": "uint256",
          "name": "",
          "type": "uint256"
        },
        {
          "internalType": "uint256",
          "name": "",
          "type": "uint256"
        }
      ],
      "stateMutability": "view",
      "type": "function"
    },
    {
      "inputs": [
        {
          "internalType": "uint256",
          "name": "casinoTokenCount",
          "type": "uint256"
        }
      ],
      "name": "buyIn",
      "outputs": [],
      "stateMutability": "nonpayable",
      "type": "function"
    },
    {
      "inputs": [
        {
          "internalType": "address",
          "name": "casinoAddress",
          "type": "address"
        },
        {
          "internalType": "address",
          "name": "casinoAdmin",
          "type": "address"
        },
        {
          "internalType": "uint256",
          "name": "casinoTokenCount",
          "type": "uint256"
        }
      ],
      "name": "casinoBuyIn",
      "outputs": [],
      "stateMutability": "nonpayable",
      "type": "function"
    },
    {
      "inputs": [
        {
          "internalType": "uint256",
          "name": "casinoTokenCount",
          "type": "uint256"
        }
      ],
      "name": "cashOut",
      "outputs": [],
      "stateMutability": "nonpayable",
      "type": "function"
    },
    {
      "inputs": [
        {
          "internalType": "address",
          "name": "casinoAddress",
          "type": "address"
        },
        {
          "internalType": "address",
          "name": "casinoAdmin",
          "type": "address"
        },
        {
          "internalType": "uint256",
          "name": "casinoTokenCount",
          "type": "uint256"
        }
      ],
      "name": "casinoCashOut",
      "outputs": [],
      "stateMutability": "nonpayable",
      "type": "function"
    },
    {
      "inputs": [
        {
          "internalType": "uint256",
          "name": "casinoTokenCount",
          "type": "uint256"
        }
      ],
      "name": "convertToUsdc",
      "outputs": [
        {
          "internalType": "uint256",
          "name": "",
          "type": "uint256"
        }
      ],
      "stateMutability": "view",
      "type": "function"
    }
  ],
  "bytecode": "0x6080604052336000806101000a81548173ffffffffffffffffffffffffffffffffffffffff021916908373ffffffffffffffffffffffffffffffffffffffff160217905550620f424060055534801561005757600080fd5b506040516115723803806115728339818101604052606081101561007a57600080fd5b8101908080519060200190929190805190602001909291908051906020019092919050505082600160006101000a81548173ffffffffffffffffffffffffffffffffffffffff021916908373ffffffffffffffffffffffffffffffffffffffff1602179055508160038190555080600481905550505050611472806101006000396000f3fe608060405234801561001057600080fd5b50600436106100cf5760003560e01c80638d0c62a31161008c578063ea4bc6e911610066578063ea4bc6e9146102c8578063f764a16014610336578063f851a44014610354578063fa13fef214610388576100cf565b80638d0c62a31461023a578063a58296281461027c578063b287d8ca1461029a576100cf565b8063174f548f146100d45780631d3f9d2a146101185780633e413bee1461013657806346d7c91a1461016a5780635c7b79f5146101d857806371d0537514610206575b600080fd5b610116600480360360208110156100ea57600080fd5b81019080803573ffffffffffffffffffffffffffffffffffffffff1690602001909291905050506103ad565b005b61012061061a565b6040518082815260200191505060405180910390f35b61013e610620565b604051808273ffffffffffffffffffffffffffffffffffffffff16815260200191505060405180910390f35b6101d66004803603606081101561018057600080fd5b81019080803573ffffffffffffffffffffffffffffffffffffffff169060200190929190803573ffffffffffffffffffffffffffffffffffffffff16906020019092919080359060200190929190505050610646565b005b610204600480360360208110156101ee57600080fd5b8101908080359060200190929190505050610952565b005b61020e610bb8565b604051808273ffffffffffffffffffffffffffffffffffffffff16815260200191505060405180910390f35b6102666004803603602081101561025057600080fd5b8101908080359060200190929190505050610bde565b6040518082815260200191505060405180910390f35b610284610c09565b6040518082815260200191505060405180910390f35b6102c6600480360360208110156102b057600080fd5b8101908080359060200190929190505050610c0f565b005b610334600480360360608110156102de57600080fd5b81019080803573ffffffffffffffffffffffffffffffffffffffff169060200190929190803573ffffffffffffffffffffffffffffffffffffffff16906020019092919080359060200190929190505050610ef8565b005b61033e611222565b6040518082815260200191505060405180910390f35b61035c611228565b604051808273ffffffffffffffffffffffffffffffffffffffff16815260200191505060405180910390f35b61039061124c565b604051808381526020018281526020019250505060405180910390f35b60008054906101000a900473ffffffffffffffffffffffffffffffffffffffff1673ffffffffffffffffffffffffffffffffffffffff163373ffffffffffffffffffffffffffffffffffffffff1614610451576040517f08c379a000000000000000000000000000000000000000000000000000000000815260040180806020018281038252603081526020018061140d6030913960400191505060405180910390fd5b600073ffffffffffffffffffffffffffffffffffffffff168173ffffffffffffffffffffffffffffffffffffffff1614156104d7576040517f08c379a000000000000000000000000000000000000000000000000000000000815260040180806020018281038252603081526020018061136d6030913960400191505060405180910390fd5b80600260006101000a81548173ffffffffffffffffffffffffffffffffffffffff021916908373ffffffffffffffffffffffffffffffffffffffff16021790555060011515600260009054906101000a900473ffffffffffffffffffffffffffffffffffffffff1673ffffffffffffffffffffffffffffffffffffffff1663b6db75a06040518163ffffffff1660e01b815260040160206040518083038186803b15801561058457600080fd5b505afa158015610598573d6000803e3d6000fd5b505050506040513d60208110156105ae57600080fd5b8101908080519060200190929190505050151514610617576040517f08c379a000000000000000000000000000000000000000000000000000000000815260040180806020018281038252602e8152602001806113be602e913960400191505060405180910390fd5b50565b60055481565b600160009054906101000a900473ffffffffffffffffffffffffffffffffffffffff1681565b60008054906101000a900473ffffffffffffffffffffffffffffffffffffffff1673ffffffffffffffffffffffffffffffffffffffff163373ffffffffffffffffffffffffffffffffffffffff16146106ea576040517f08c379a000000000000000000000000000000000000000000000000000000000815260040180806020018281038252603081526020018061140d6030913960400191505060405180910390fd5b60008111610760576040517f08c379a000000000000000000000000000000000000000000000000000000000815260040180806020018281038252601f8152602001807f506f73697469766520746f6b656e207769746864726177616c73206f6e6c790081525060200191505060405180910390fd5b600260009054906101000a900473ffffffffffffffffffffffffffffffffffffffff1673ffffffffffffffffffffffffffffffffffffffff16639dc29fac84836040518363ffffffff1660e01b8152600401808373ffffffffffffffffffffffffffffffffffffffff16815260200182815260200192505050600060405180830381600087803b1580156107f357600080fd5b505af1158015610807573d6000803e3d6000fd5b50505050600061081682610bde565b90507f3d11e49d17dc6f1c19377a813db1fc78fa3b3f0324051794e9a361b5b7e434c084828442604051808573ffffffffffffffffffffffffffffffffffffffff16815260200184815260200183815260200182815260200194505050505060405180910390a1600160009054906101000a900473ffffffffffffffffffffffffffffffffffffffff1673ffffffffffffffffffffffffffffffffffffffff1663a9059cbb84836040518363ffffffff1660e01b8152600401808373ffffffffffffffffffffffffffffffffffffffff16815260200182815260200192505050602060405180830381600087803b15801561091057600080fd5b505af1158015610924573d6000803e3d6000fd5b505050506040513d602081101561093a57600080fd5b81019080805190602001909291905050505050505050565b600081116109c8576040517f08c379a000000000000000000000000000000000000000000000000000000000815260040180806020018281038252601f8152602001807f506f73697469766520746f6b656e207769746864726177616c73206f6e6c790081525060200191505060405180910390fd5b600260009054906101000a900473ffffffffffffffffffffffffffffffffffffffff1673ffffffffffffffffffffffffffffffffffffffff16639dc29fac33836040518363ffffffff1660e01b8152600401808373ffffffffffffffffffffffffffffffffffffffff16815260200182815260200192505050600060405180830381600087803b158015610a5b57600080fd5b505af1158015610a6f573d6000803e3d6000fd5b505050506000610a7e82610bde565b90507f3d11e49d17dc6f1c19377a813db1fc78fa3b3f0324051794e9a361b5b7e434c033828442604051808573ffffffffffffffffffffffffffffffffffffffff16815260200184815260200183815260200182815260200194505050505060405180910390a1600160009054906101000a900473ffffffffffffffffffffffffffffffffffffffff1673ffffffffffffffffffffffffffffffffffffffff1663a9059cbb33836040518363ffffffff1660e01b8152600401808373ffffffffffffffffffffffffffffffffffffffff16815260200182815260200192505050602060405180830381600087803b158015610b7857600080fd5b505af1158015610b8c573d6000803e3d6000fd5b505050506040513d6020811015610ba257600080fd5b8101908080519060200190929190505050505050565b600260009054906101000a900473ffffffffffffffffffffffffffffffffffffffff1681565b6000610c02610bfa610bf28460055461125d565b60045461125d565b6003546112e3565b9050919050565b60035481565b60008111610c85576040517f08c379a000000000000000000000000000000000000000000000000000000000815260040180806020018281038252601c8152602001807f506f73697469766520746f6b656e207265717565737473206f6e6c790000000081525060200191505060405180910390fd5b6000610c9082610bde565b9050610c9f606460055461125d565b811115610cf7576040517f08c379a000000000000000000000000000000000000000000000000000000000815260040180806020018281038252602181526020018061139d6021913960400191505060405180910390fd5b600160009054906101000a900473ffffffffffffffffffffffffffffffffffffffff1673ffffffffffffffffffffffffffffffffffffffff166323b872dd3330846040518463ffffffff1660e01b8152600401808473ffffffffffffffffffffffffffffffffffffffff1681526020018373ffffffffffffffffffffffffffffffffffffffff1681526020018281526020019350505050602060405180830381600087803b158015610da857600080fd5b505af1158015610dbc573d6000803e3d6000fd5b505050506040513d6020811015610dd257600080fd5b8101908080519060200190929190505050507fda1e38c3ea11dcade3b745fba55d671ca2deb551d4bbe46505c4d54839ac671433828442604051808573ffffffffffffffffffffffffffffffffffffffff16815260200184815260200183815260200182815260200194505050505060405180910390a1600260009054906101000a900473ffffffffffffffffffffffffffffffffffffffff1673ffffffffffffffffffffffffffffffffffffffff166340c10f1933846040518363ffffffff1660e01b8152600401808373ffffffffffffffffffffffffffffffffffffffff16815260200182815260200192505050600060405180830381600087803b158015610edc57600080fd5b505af1158015610ef0573d6000803e3d6000fd5b505050505050565b60008054906101000a900473ffffffffffffffffffffffffffffffffffffffff1673ffffffffffffffffffffffffffffffffffffffff163373ffffffffffffffffffffffffffffffffffffffff1614610f9c576040517f08c379a000000000000000000000000000000000000000000000000000000000815260040180806020018281038252603081526020018061140d6030913960400191505060405180910390fd5b60008111611012576040517f08c379a000000000000000000000000000000000000000000000000000000000815260040180806020018281038252601c8152602001807f506f73697469766520746f6b656e207265717565737473206f6e6c790000000081525060200191505060405180910390fd5b600061101d82610bde565b9050600160009054906101000a900473ffffffffffffffffffffffffffffffffffffffff1673ffffffffffffffffffffffffffffffffffffffff166323b872dd8430846040518463ffffffff1660e01b8152600401808473ffffffffffffffffffffffffffffffffffffffff1681526020018373ffffffffffffffffffffffffffffffffffffffff1681526020018281526020019350505050602060405180830381600087803b1580156110d057600080fd5b505af11580156110e4573d6000803e3d6000fd5b505050506040513d60208110156110fa57600080fd5b8101908080519060200190929190505050507fda1e38c3ea11dcade3b745fba55d671ca2deb551d4bbe46505c4d54839ac671484828442604051808573ffffffffffffffffffffffffffffffffffffffff16815260200184815260200183815260200182815260200194505050505060405180910390a1600260009054906101000a900473ffffffffffffffffffffffffffffffffffffffff1673ffffffffffffffffffffffffffffffffffffffff166340c10f1985846040518363ffffffff1660e01b8152600401808373ffffffffffffffffffffffffffffffffffffffff16815260200182815260200192505050600060405180830381600087803b15801561120457600080fd5b505af1158015611218573d6000803e3d6000fd5b5050505050505050565b60045481565b60008054906101000a900473ffffffffffffffffffffffffffffffffffffffff1681565b600080600354600454915091509091565b60008083141561127057600090506112dd565b600082840290508284828161128157fe5b04146112d8576040517f08c379a00000000000000000000000000000000000000000000000000000000081526004018080602001828103825260218152602001806113ec6021913960400191505060405180910390fd5b809150505b92915050565b600080821161135a576040517f08c379a000000000000000000000000000000000000000000000000000000000815260040180806020018281038252601a8152602001807f536166654d6174683a206469766973696f6e206279207a65726f00000000000081525060200191505060405180910390fd5b81838161136357fe5b0490509291505056fe436173696e6f20546f6b656e2061646472657373206d757374206e6f74206265207468652030783020616464726573734174206d6f73742031303020555344432063616e2062652065786368616e676564526571756972696e672062616e6b20746f206265206f776e6572206f662074686520436173696e6f20546f6b656e536166654d6174683a206d756c7469706c69636174696f6e206f766572666c6f774f6e6c79207468652061646d696e20697320616c6c6f77656420746f2063616c6c2074686973206f7065726174696f6ea2646970667358221220c246f8a30cce241e08b9abde23233197e34483d6472468617e451d6a2477670964736f6c63430007060033",
  "immutableReferences": {},
  "source": "// SPDX-License-Identifier: MIT\npragma solidity ^0.7.4;\n\nimport \"@openzeppelin/contracts/token/ERC20/IERC20.sol\";\nimport \"@openzeppelin/contracts/math/SafeMath.sol\";\nimport \"./CasinoToken.sol\";\nimport \"./Owned.sol\";\n\ncontract Bank is Owned {\n  IERC20 public usdc;\n  CasinoToken public casinoToken;\n  uint public conversionNominator;\n  uint public conversionDenominator;\n  uint public usdcConversion = 10**6;\n\n  event BuyIn (\n    address player,\n    uint usdcAmount,\n    uint casinoTokenCount,\n    uint date\n  );\n\n  event CashOut (\n    address player,\n    uint usdcAmount,\n    uint casinoTokenCount,\n    uint date\n  );\n\n  constructor(address usdcAddress, uint initialConversionNominator, uint initialConversionDenominator) {\n    usdc = IERC20(usdcAddress);\n    conversionNominator = initialConversionNominator;\n    conversionDenominator = initialConversionDenominator;\n  }\n\n  function setCasinoToken(address casinoTokenAddress) external onlyAdmin {\n    require(casinoTokenAddress != address(0), 'Casino Token address must not be the 0x0 address');\n    casinoToken = CasinoToken(casinoTokenAddress);\n    require(casinoToken.isAdmin() == true, 'Requiring bank to be owner of the Casino Token');\n  }\n\n  function getConversionFactor() external view returns (uint, uint) {\n    return (conversionNominator, conversionDenominator);\n  }\n\n  function buyIn(uint casinoTokenCount) external {\n    require(casinoTokenCount > 0, 'Positive token requests only');\n    uint usdcAmount = convertToUsdc(casinoTokenCount);\n    require(usdcAmount <= SafeMath.mul(100, usdcConversion), 'At most 100 USDC can be exchanged');\n    usdc.transferFrom(msg.sender, address(this), usdcAmount); // lock USDC in this contract\n    emit BuyIn(msg.sender, usdcAmount, casinoTokenCount, block.timestamp);\n    casinoToken.mint(msg.sender, casinoTokenCount);\n  }\n\n  function casinoBuyIn(address casinoAddress, address casinoAdmin, uint casinoTokenCount) external onlyAdmin {\n    require(casinoTokenCount > 0, 'Positive token requests only');\n    uint usdcAmount = convertToUsdc(casinoTokenCount);\n    usdc.transferFrom(casinoAdmin, address(this), usdcAmount); // lock USDC in this contract\n    emit BuyIn(casinoAddress, usdcAmount, casinoTokenCount, block.timestamp);\n    casinoToken.mint(casinoAddress, casinoTokenCount);\n  }\n\n  function cashOut(uint casinoTokenCount) external {\n    require(casinoTokenCount > 0, 'Positive token withdrawals only');\n    casinoToken.burn(msg.sender, casinoTokenCount);\n    uint usdcAmount = convertToUsdc(casinoTokenCount);\n    emit CashOut(msg.sender, usdcAmount, casinoTokenCount, block.timestamp);\n    usdc.transfer(msg.sender, usdcAmount);\n  }\n\n  function casinoCashOut(address casinoAddress, address casinoAdmin, uint casinoTokenCount) external onlyAdmin {\n    require(casinoTokenCount > 0, 'Positive token withdrawals only');\n    casinoToken.burn(casinoAddress, casinoTokenCount);\n    uint usdcAmount = convertToUsdc(casinoTokenCount);\n    emit CashOut(casinoAddress, usdcAmount, casinoTokenCount, block.timestamp);\n    usdc.transfer(casinoAdmin, usdcAmount);\n  }\n\n  function convertToUsdc(uint casinoTokenCount) public view returns (uint) {\n    // (casinoToken * 10**6) * inverse(conversionFactor)\n    // conversionFactor = conversionNominator / conversionDenominator\n    return \n        SafeMath.div(\n            SafeMath.mul(\n                SafeMath.mul(casinoTokenCount, usdcConversion), \n                conversionDenominator),\n            conversionNominator);\n  }\n}",
  "sourcePath": "/Users/hagenschupp/Documents/Projekte/Ethereum/TokenCasino/contract/contracts/Bank.sol",
  "compiler": {
    "name": "solc",
    "version": "0.7.6+commit.7338295f.Emscripten.clang"
  },
  "schemaVersion": "3.3.4",
  "updatedAt": "2021-03-17T09:26:08.403Z",
  "devdoc": {
    "kind": "dev",
    "methods": {},
    "version": 1
  },
  "userdoc": {
    "kind": "user",
    "methods": {},
    "version": 1
  }
}