{
  "contractName": "Bank",
  "abi": [
    {
      "inputs": [
        {
          "internalType": "address",
          "name": "usdcAddress",
          "type": "address"
        },
        {
          "internalType": "uint256",
          "name": "initialConversionNominator",
          "type": "uint256"
        },
        {
          "internalType": "uint256",
          "name": "initialConversionDenominator",
          "type": "uint256"
        }
      ],
      "stateMutability": "nonpayable",
      "type": "constructor"
    },
    {
      "anonymous": false,
      "inputs": [
        {
          "indexed": false,
          "internalType": "address",
          "name": "player",
          "type": "address"
        },
        {
          "indexed": false,
          "internalType": "uint256",
          "name": "usdcAmount",
          "type": "uint256"
        },
        {
          "indexed": false,
          "internalType": "uint256",
          "name": "casinoTokenCount",
          "type": "uint256"
        },
        {
          "indexed": false,
          "internalType": "uint256",
          "name": "date",
          "type": "uint256"
        }
      ],
      "name": "BuyIn",
      "type": "event"
    },
    {
      "anonymous": false,
      "inputs": [
        {
          "indexed": false,
          "internalType": "address",
          "name": "player",
          "type": "address"
        },
        {
          "indexed": false,
          "internalType": "uint256",
          "name": "usdcAmount",
          "type": "uint256"
        },
        {
          "indexed": false,
          "internalType": "uint256",
          "name": "casinoTokenCount",
          "type": "uint256"
        },
        {
          "indexed": false,
          "internalType": "uint256",
          "name": "date",
          "type": "uint256"
        }
      ],
      "name": "CashOut",
      "type": "event"
    },
    {
      "inputs": [],
      "name": "admin",
      "outputs": [
        {
          "internalType": "address",
          "name": "",
          "type": "address"
        }
      ],
      "stateMutability": "view",
      "type": "function"
    },
    {
      "inputs": [],
      "name": "casinoToken",
      "outputs": [
        {
          "internalType": "contract CasinoToken",
          "name": "",
          "type": "address"
        }
      ],
      "stateMutability": "view",
      "type": "function"
    },
    {
      "inputs": [],
      "name": "conversionDenominator",
      "outputs": [
        {
          "internalType": "uint256",
          "name": "",
          "type": "uint256"
        }
      ],
      "stateMutability": "view",
      "type": "function"
    },
    {
      "inputs": [],
      "name": "conversionNominator",
      "outputs": [
        {
          "internalType": "uint256",
          "name": "",
          "type": "uint256"
        }
      ],
      "stateMutability": "view",
      "type": "function"
    },
    {
      "inputs": [],
      "name": "usdc",
      "outputs": [
        {
          "internalType": "contract IERC20",
          "name": "",
          "type": "address"
        }
      ],
      "stateMutability": "view",
      "type": "function"
    },
    {
      "inputs": [
        {
          "internalType": "address",
          "name": "casinoTokenAddress",
          "type": "address"
        }
      ],
      "name": "setCasinoToken",
      "outputs": [],
      "stateMutability": "nonpayable",
      "type": "function"
    },
    {
      "inputs": [],
      "name": "getConversionFactor",
      "outputs": [
        {
          "internalType": "uint256",
          "name": "",
          "type": "uint256"
        },
        {
          "internalType": "uint256",
          "name": "",
          "type": "uint256"
        }
      ],
      "stateMutability": "view",
      "type": "function"
    },
    {
      "inputs": [
        {
          "internalType": "uint256",
          "name": "casinoTokenCount",
          "type": "uint256"
        }
      ],
      "name": "buyIn",
      "outputs": [],
      "stateMutability": "nonpayable",
      "type": "function"
    },
    {
      "inputs": [
        {
          "internalType": "address",
          "name": "casinoAddress",
          "type": "address"
        },
        {
          "internalType": "address",
          "name": "casinoAdmin",
          "type": "address"
        },
        {
          "internalType": "uint256",
          "name": "casinoTokenCount",
          "type": "uint256"
        }
      ],
      "name": "casinoBuyIn",
      "outputs": [],
      "stateMutability": "nonpayable",
      "type": "function"
    },
    {
      "inputs": [
        {
          "internalType": "uint256",
          "name": "casinoTokenCount",
          "type": "uint256"
        }
      ],
      "name": "cashOut",
      "outputs": [],
      "stateMutability": "nonpayable",
      "type": "function"
    },
    {
      "inputs": [
        {
          "internalType": "address",
          "name": "casinoAddress",
          "type": "address"
        },
        {
          "internalType": "address",
          "name": "casinoAdmin",
          "type": "address"
        },
        {
          "internalType": "uint256",
          "name": "casinoTokenCount",
          "type": "uint256"
        }
      ],
      "name": "casinoCashOut",
      "outputs": [],
      "stateMutability": "nonpayable",
      "type": "function"
    },
    {
      "inputs": [
        {
          "internalType": "uint256",
          "name": "casinoTokenCount",
          "type": "uint256"
        }
      ],
      "name": "convertToUsdc",
      "outputs": [
        {
          "internalType": "uint256",
          "name": "",
          "type": "uint256"
        }
      ],
      "stateMutability": "view",
      "type": "function"
    }
  ],
  "bytecode": "0x6080604052620f424060055534801561001757600080fd5b506040516115333803806115338339818101604052606081101561003a57600080fd5b81019080805190602001909291908051906020019092919080519060200190929190505050336000806101000a81548173ffffffffffffffffffffffffffffffffffffffff021916908373ffffffffffffffffffffffffffffffffffffffff16021790555082600160006101000a81548173ffffffffffffffffffffffffffffffffffffffff021916908373ffffffffffffffffffffffffffffffffffffffff1602179055508160038190555080600481905550505050611433806101006000396000f3fe608060405234801561001057600080fd5b50600436106100b45760003560e01c8063a582962811610071578063a582962814610243578063b287d8ca14610261578063ea4bc6e91461028f578063f764a160146102fd578063f851a4401461031b578063fa13fef21461034f576100b4565b8063174f548f146100b95780633e413bee146100fd57806346d7c91a146101315780635c7b79f51461019f57806371d05375146101cd5780638d0c62a314610201575b600080fd5b6100fb600480360360208110156100cf57600080fd5b81019080803573ffffffffffffffffffffffffffffffffffffffff169060200190929190505050610374565b005b6101056105e1565b604051808273ffffffffffffffffffffffffffffffffffffffff16815260200191505060405180910390f35b61019d6004803603606081101561014757600080fd5b81019080803573ffffffffffffffffffffffffffffffffffffffff169060200190929190803573ffffffffffffffffffffffffffffffffffffffff16906020019092919080359060200190929190505050610607565b005b6101cb600480360360208110156101b557600080fd5b8101908080359060200190929190505050610913565b005b6101d5610b79565b604051808273ffffffffffffffffffffffffffffffffffffffff16815260200191505060405180910390f35b61022d6004803603602081101561021757600080fd5b8101908080359060200190929190505050610b9f565b6040518082815260200191505060405180910390f35b61024b610bca565b6040518082815260200191505060405180910390f35b61028d6004803603602081101561027757600080fd5b8101908080359060200190929190505050610bd0565b005b6102fb600480360360608110156102a557600080fd5b81019080803573ffffffffffffffffffffffffffffffffffffffff169060200190929190803573ffffffffffffffffffffffffffffffffffffffff16906020019092919080359060200190929190505050610eb9565b005b6103056111e3565b6040518082815260200191505060405180910390f35b6103236111e9565b604051808273ffffffffffffffffffffffffffffffffffffffff16815260200191505060405180910390f35b61035761120d565b604051808381526020018281526020019250505060405180910390f35b60008054906101000a900473ffffffffffffffffffffffffffffffffffffffff1673ffffffffffffffffffffffffffffffffffffffff163373ffffffffffffffffffffffffffffffffffffffff1614610418576040517f08c379a00000000000000000000000000000000000000000000000000000000081526004018080602001828103825260308152602001806113ce6030913960400191505060405180910390fd5b600073ffffffffffffffffffffffffffffffffffffffff168173ffffffffffffffffffffffffffffffffffffffff16141561049e576040517f08c379a000000000000000000000000000000000000000000000000000000000815260040180806020018281038252603081526020018061132e6030913960400191505060405180910390fd5b80600260006101000a81548173ffffffffffffffffffffffffffffffffffffffff021916908373ffffffffffffffffffffffffffffffffffffffff16021790555060011515600260009054906101000a900473ffffffffffffffffffffffffffffffffffffffff1673ffffffffffffffffffffffffffffffffffffffff1663b6db75a06040518163ffffffff1660e01b815260040160206040518083038186803b15801561054b57600080fd5b505afa15801561055f573d6000803e3d6000fd5b505050506040513d602081101561057557600080fd5b81019080805190602001909291905050501515146105de576040517f08c379a000000000000000000000000000000000000000000000000000000000815260040180806020018281038252602e81526020018061137f602e913960400191505060405180910390fd5b50565b600160009054906101000a900473ffffffffffffffffffffffffffffffffffffffff1681565b60008054906101000a900473ffffffffffffffffffffffffffffffffffffffff1673ffffffffffffffffffffffffffffffffffffffff163373ffffffffffffffffffffffffffffffffffffffff16146106ab576040517f08c379a00000000000000000000000000000000000000000000000000000000081526004018080602001828103825260308152602001806113ce6030913960400191505060405180910390fd5b60008111610721576040517f08c379a000000000000000000000000000000000000000000000000000000000815260040180806020018281038252601f8152602001807f506f73697469766520746f6b656e207769746864726177616c73206f6e6c790081525060200191505060405180910390fd5b600260009054906101000a900473ffffffffffffffffffffffffffffffffffffffff1673ffffffffffffffffffffffffffffffffffffffff16639dc29fac84836040518363ffffffff1660e01b8152600401808373ffffffffffffffffffffffffffffffffffffffff16815260200182815260200192505050600060405180830381600087803b1580156107b457600080fd5b505af11580156107c8573d6000803e3d6000fd5b5050505060006107d782610b9f565b90507f3d11e49d17dc6f1c19377a813db1fc78fa3b3f0324051794e9a361b5b7e434c084828442604051808573ffffffffffffffffffffffffffffffffffffffff16815260200184815260200183815260200182815260200194505050505060405180910390a1600160009054906101000a900473ffffffffffffffffffffffffffffffffffffffff1673ffffffffffffffffffffffffffffffffffffffff1663a9059cbb84836040518363ffffffff1660e01b8152600401808373ffffffffffffffffffffffffffffffffffffffff16815260200182815260200192505050602060405180830381600087803b1580156108d157600080fd5b505af11580156108e5573d6000803e3d6000fd5b505050506040513d60208110156108fb57600080fd5b81019080805190602001909291905050505050505050565b60008111610989576040517f08c379a000000000000000000000000000000000000000000000000000000000815260040180806020018281038252601f8152602001807f506f73697469766520746f6b656e207769746864726177616c73206f6e6c790081525060200191505060405180910390fd5b600260009054906101000a900473ffffffffffffffffffffffffffffffffffffffff1673ffffffffffffffffffffffffffffffffffffffff16639dc29fac33836040518363ffffffff1660e01b8152600401808373ffffffffffffffffffffffffffffffffffffffff16815260200182815260200192505050600060405180830381600087803b158015610a1c57600080fd5b505af1158015610a30573d6000803e3d6000fd5b505050506000610a3f82610b9f565b90507f3d11e49d17dc6f1c19377a813db1fc78fa3b3f0324051794e9a361b5b7e434c033828442604051808573ffffffffffffffffffffffffffffffffffffffff16815260200184815260200183815260200182815260200194505050505060405180910390a1600160009054906101000a900473ffffffffffffffffffffffffffffffffffffffff1673ffffffffffffffffffffffffffffffffffffffff1663a9059cbb33836040518363ffffffff1660e01b8152600401808373ffffffffffffffffffffffffffffffffffffffff16815260200182815260200192505050602060405180830381600087803b158015610b3957600080fd5b505af1158015610b4d573d6000803e3d6000fd5b505050506040513d6020811015610b6357600080fd5b8101908080519060200190929190505050505050565b600260009054906101000a900473ffffffffffffffffffffffffffffffffffffffff1681565b6000610bc3610bbb610bb38460055461121e565b60045461121e565b6003546112a4565b9050919050565b60035481565b60008111610c46576040517f08c379a000000000000000000000000000000000000000000000000000000000815260040180806020018281038252601c8152602001807f506f73697469766520746f6b656e207265717565737473206f6e6c790000000081525060200191505060405180910390fd5b6000610c5182610b9f565b9050610c60606460055461121e565b811115610cb8576040517f08c379a000000000000000000000000000000000000000000000000000000000815260040180806020018281038252602181526020018061135e6021913960400191505060405180910390fd5b600160009054906101000a900473ffffffffffffffffffffffffffffffffffffffff1673ffffffffffffffffffffffffffffffffffffffff166323b872dd3330846040518463ffffffff1660e01b8152600401808473ffffffffffffffffffffffffffffffffffffffff1681526020018373ffffffffffffffffffffffffffffffffffffffff1681526020018281526020019350505050602060405180830381600087803b158015610d6957600080fd5b505af1158015610d7d573d6000803e3d6000fd5b505050506040513d6020811015610d9357600080fd5b8101908080519060200190929190505050507fda1e38c3ea11dcade3b745fba55d671ca2deb551d4bbe46505c4d54839ac671433828442604051808573ffffffffffffffffffffffffffffffffffffffff16815260200184815260200183815260200182815260200194505050505060405180910390a1600260009054906101000a900473ffffffffffffffffffffffffffffffffffffffff1673ffffffffffffffffffffffffffffffffffffffff166340c10f1933846040518363ffffffff1660e01b8152600401808373ffffffffffffffffffffffffffffffffffffffff16815260200182815260200192505050600060405180830381600087803b158015610e9d57600080fd5b505af1158015610eb1573d6000803e3d6000fd5b505050505050565b60008054906101000a900473ffffffffffffffffffffffffffffffffffffffff1673ffffffffffffffffffffffffffffffffffffffff163373ffffffffffffffffffffffffffffffffffffffff1614610f5d576040517f08c379a00000000000000000000000000000000000000000000000000000000081526004018080602001828103825260308152602001806113ce6030913960400191505060405180910390fd5b60008111610fd3576040517f08c379a000000000000000000000000000000000000000000000000000000000815260040180806020018281038252601c8152602001807f506f73697469766520746f6b656e207265717565737473206f6e6c790000000081525060200191505060405180910390fd5b6000610fde82610b9f565b9050600160009054906101000a900473ffffffffffffffffffffffffffffffffffffffff1673ffffffffffffffffffffffffffffffffffffffff166323b872dd8430846040518463ffffffff1660e01b8152600401808473ffffffffffffffffffffffffffffffffffffffff1681526020018373ffffffffffffffffffffffffffffffffffffffff1681526020018281526020019350505050602060405180830381600087803b15801561109157600080fd5b505af11580156110a5573d6000803e3d6000fd5b505050506040513d60208110156110bb57600080fd5b8101908080519060200190929190505050507fda1e38c3ea11dcade3b745fba55d671ca2deb551d4bbe46505c4d54839ac671484828442604051808573ffffffffffffffffffffffffffffffffffffffff16815260200184815260200183815260200182815260200194505050505060405180910390a1600260009054906101000a900473ffffffffffffffffffffffffffffffffffffffff1673ffffffffffffffffffffffffffffffffffffffff166340c10f1985846040518363ffffffff1660e01b8152600401808373ffffffffffffffffffffffffffffffffffffffff16815260200182815260200192505050600060405180830381600087803b1580156111c557600080fd5b505af11580156111d9573d6000803e3d6000fd5b5050505050505050565b60045481565b60008054906101000a900473ffffffffffffffffffffffffffffffffffffffff1681565b600080600354600454915091509091565b600080831415611231576000905061129e565b600082840290508284828161124257fe5b0414611299576040517f08c379a00000000000000000000000000000000000000000000000000000000081526004018080602001828103825260218152602001806113ad6021913960400191505060405180910390fd5b809150505b92915050565b600080821161131b576040517f08c379a000000000000000000000000000000000000000000000000000000000815260040180806020018281038252601a8152602001807f536166654d6174683a206469766973696f6e206279207a65726f00000000000081525060200191505060405180910390fd5b81838161132457fe5b0490509291505056fe436173696e6f20546f6b656e2061646472657373206d757374206e6f74206265207468652030783020616464726573734174206d6f73742031303020555344432063616e2062652065786368616e676564526571756972696e672062616e6b20746f206265206f776e6572206f662074686520436173696e6f20546f6b656e536166654d6174683a206d756c7469706c69636174696f6e206f766572666c6f774f6e6c79207468652061646d696e20697320616c6c6f77656420746f2063616c6c2074686973206f7065726174696f6ea264697066735822122057d2ad0acb3dd9f2105796ba2eb6b4754f5a087f7796e74204a861fc834558e464736f6c63430007060033",
  "immutableReferences": {},
  "source": "// SPDX-License-Identifier: MIT\npragma solidity ^0.7.4;\n\nimport \"@openzeppelin/contracts/token/ERC20/IERC20.sol\";\nimport \"@openzeppelin/contracts/math/SafeMath.sol\";\nimport \"./CasinoToken.sol\";\n\ncontract Bank {\n  address public admin;\n  IERC20 public usdc;\n  CasinoToken public casinoToken;\n  uint public conversionNominator;\n  uint public conversionDenominator;\n  uint usdcConversion = 10**6;\n\n  event BuyIn (\n    address player,\n    uint usdcAmount,\n    uint casinoTokenCount,\n    uint date\n  );\n\n  event CashOut (\n    address player,\n    uint usdcAmount,\n    uint casinoTokenCount,\n    uint date\n  );\n\n  constructor(address usdcAddress, uint initialConversionNominator, uint initialConversionDenominator) {\n    admin = msg.sender;\n    usdc = IERC20(usdcAddress);\n    conversionNominator = initialConversionNominator;\n    conversionDenominator = initialConversionDenominator;\n  }\n\n  function setCasinoToken(address casinoTokenAddress) public {\n    require(msg.sender == admin, 'Only the admin is allowed to call this operation');\n    require(casinoTokenAddress != address(0), 'Casino Token address must not be the 0x0 address');\n    casinoToken = CasinoToken(casinoTokenAddress);\n    require(casinoToken.isAdmin() == true, 'Requiring bank to be owner of the Casino Token');\n  }\n\n  function getConversionFactor() public view returns (uint, uint) {\n    return (conversionNominator, conversionDenominator);\n  }\n\n  function buyIn(uint casinoTokenCount) public {\n    require(casinoTokenCount > 0, 'Positive token requests only');\n    uint usdcAmount = convertToUsdc(casinoTokenCount);\n    require(usdcAmount <= SafeMath.mul(100, usdcConversion), 'At most 100 USDC can be exchanged');\n    usdc.transferFrom(msg.sender, address(this), usdcAmount); // lock USDC in this contract\n    emit BuyIn(msg.sender, usdcAmount, casinoTokenCount, block.timestamp);\n    casinoToken.mint(msg.sender, casinoTokenCount);\n  }\n\n  function casinoBuyIn(address casinoAddress, address casinoAdmin, uint casinoTokenCount) public {\n    require(msg.sender == admin, 'Only the admin is allowed to call this operation');\n    require(casinoTokenCount > 0, 'Positive token requests only');\n    uint usdcAmount = convertToUsdc(casinoTokenCount);\n    usdc.transferFrom(casinoAdmin, address(this), usdcAmount); // lock USDC in this contract\n    emit BuyIn(casinoAddress, usdcAmount, casinoTokenCount, block.timestamp);\n    casinoToken.mint(casinoAddress, casinoTokenCount);\n  }\n\n  function cashOut(uint casinoTokenCount) public {\n    require(casinoTokenCount > 0, 'Positive token withdrawals only');\n    casinoToken.burn(msg.sender, casinoTokenCount);\n    uint usdcAmount = convertToUsdc(casinoTokenCount);\n    emit CashOut(msg.sender, usdcAmount, casinoTokenCount, block.timestamp);\n    usdc.transfer(msg.sender, usdcAmount);\n  }\n\n  function casinoCashOut(address casinoAddress, address casinoAdmin, uint casinoTokenCount) public {\n    require(msg.sender == admin, 'Only the admin is allowed to call this operation');\n    require(casinoTokenCount > 0, 'Positive token withdrawals only');\n    casinoToken.burn(casinoAddress, casinoTokenCount);\n    uint usdcAmount = convertToUsdc(casinoTokenCount);\n    emit CashOut(casinoAddress, usdcAmount, casinoTokenCount, block.timestamp);\n    usdc.transfer(casinoAdmin, usdcAmount);\n  }\n\n  function convertToUsdc(uint casinoTokenCount) public view returns (uint) {\n    // (casinoToken * 10**6) * inverse(conversionFactor)\n    // conversionFactor = conversionNominator / conversionDenominator\n    return \n        SafeMath.div(\n            SafeMath.mul(\n                SafeMath.mul(casinoTokenCount, usdcConversion), \n                conversionDenominator),\n            conversionNominator);\n  }\n}",
  "sourcePath": "/Users/hagenschupp/Documents/Projekte/Ethereum/TokenCasino/contract/contracts/Bank.sol",
  "compiler": {
    "name": "solc",
    "version": "0.7.6+commit.7338295f.Emscripten.clang"
  },
  "schemaVersion": "3.3.4",
  "updatedAt": "2021-03-16T22:07:14.864Z",
  "devdoc": {
    "kind": "dev",
    "methods": {},
    "version": 1
  },
  "userdoc": {
    "kind": "user",
    "methods": {},
    "version": 1
  }
}