{
  "contractName": "Casino",
  "abi": [
    {
      "inputs": [
        {
          "internalType": "address",
          "name": "casinoTokenAddress",
          "type": "address"
        },
        {
          "internalType": "address",
          "name": "randomNumberOracleAddress",
          "type": "address"
        },
        {
          "internalType": "uint256",
          "name": "payout",
          "type": "uint256"
        },
        {
          "internalType": "uint256",
          "name": "safety",
          "type": "uint256"
        },
        {
          "internalType": "uint256",
          "name": "maxBet",
          "type": "uint256"
        }
      ],
      "stateMutability": "nonpayable",
      "type": "constructor"
    },
    {
      "anonymous": false,
      "inputs": [
        {
          "indexed": false,
          "internalType": "address",
          "name": "player",
          "type": "address"
        },
        {
          "indexed": false,
          "internalType": "uint256",
          "name": "bet",
          "type": "uint256"
        },
        {
          "indexed": false,
          "internalType": "uint256",
          "name": "payout",
          "type": "uint256"
        },
        {
          "indexed": false,
          "internalType": "bool",
          "name": "hasPlayerWon",
          "type": "bool"
        },
        {
          "indexed": false,
          "internalType": "uint32",
          "name": "casinoCard",
          "type": "uint32"
        },
        {
          "indexed": false,
          "internalType": "uint32",
          "name": "playerCard",
          "type": "uint32"
        },
        {
          "indexed": false,
          "internalType": "uint256",
          "name": "date",
          "type": "uint256"
        }
      ],
      "name": "PlayEvent",
      "type": "event"
    },
    {
      "inputs": [],
      "name": "admin",
      "outputs": [
        {
          "internalType": "address",
          "name": "",
          "type": "address"
        }
      ],
      "stateMutability": "view",
      "type": "function"
    },
    {
      "inputs": [],
      "name": "casinoToken",
      "outputs": [
        {
          "internalType": "contract CasinoToken",
          "name": "",
          "type": "address"
        }
      ],
      "stateMutability": "view",
      "type": "function"
    },
    {
      "inputs": [],
      "name": "maxBetAmount",
      "outputs": [
        {
          "internalType": "uint256",
          "name": "",
          "type": "uint256"
        }
      ],
      "stateMutability": "view",
      "type": "function"
    },
    {
      "inputs": [],
      "name": "payoutFactor",
      "outputs": [
        {
          "internalType": "uint256",
          "name": "",
          "type": "uint256"
        }
      ],
      "stateMutability": "view",
      "type": "function"
    },
    {
      "inputs": [],
      "name": "randomNumberOracle",
      "outputs": [
        {
          "internalType": "contract IRandomNumberOracle",
          "name": "",
          "type": "address"
        }
      ],
      "stateMutability": "view",
      "type": "function"
    },
    {
      "inputs": [],
      "name": "safetyAmount",
      "outputs": [
        {
          "internalType": "uint256",
          "name": "",
          "type": "uint256"
        }
      ],
      "stateMutability": "view",
      "type": "function"
    },
    {
      "inputs": [
        {
          "internalType": "uint256",
          "name": "bet",
          "type": "uint256"
        }
      ],
      "name": "play",
      "outputs": [],
      "stateMutability": "nonpayable",
      "type": "function"
    },
    {
      "inputs": [],
      "name": "getCasinoBalance",
      "outputs": [
        {
          "internalType": "uint256",
          "name": "",
          "type": "uint256"
        }
      ],
      "stateMutability": "view",
      "type": "function"
    }
  ],
  "bytecode": "0x608060405234801561001057600080fd5b506040516109e03803806109e0833981810160405260a081101561003357600080fd5b810190808051906020019092919080519060200190929190805190602001909291908051906020019092919080519060200190929190505050336000806101000a81548173ffffffffffffffffffffffffffffffffffffffff021916908373ffffffffffffffffffffffffffffffffffffffff16021790555084600160006101000a81548173ffffffffffffffffffffffffffffffffffffffff021916908373ffffffffffffffffffffffffffffffffffffffff16021790555083600260006101000a81548173ffffffffffffffffffffffffffffffffffffffff021916908373ffffffffffffffffffffffffffffffffffffffff1602179055508260038190555081600481905550806005819055505050505050610889806101576000396000f3fe608060405234801561001057600080fd5b50600436106100885760003560e01c80639c2154781161005b5780639c21547814610141578063cab11d5d1461015f578063cf2142931461017d578063f851a4401461019b57610088565b80631a0843c01461008d5780636898f82b146100ab57806371d05375146100d95780638f91e7241461010d575b600080fd5b6100956101cf565b6040518082815260200191505060405180910390f35b6100d7600480360360208110156100c157600080fd5b81019080803590602001909291905050506102a5565b005b6100e16106a7565b604051808273ffffffffffffffffffffffffffffffffffffffff16815260200191505060405180910390f35b6101156106cd565b604051808273ffffffffffffffffffffffffffffffffffffffff16815260200191505060405180910390f35b6101496106f3565b6040518082815260200191505060405180910390f35b6101676106f9565b6040518082815260200191505060405180910390f35b6101856106ff565b6040518082815260200191505060405180910390f35b6101a3610705565b604051808273ffffffffffffffffffffffffffffffffffffffff16815260200191505060405180910390f35b60006102a0600160009054906101000a900473ffffffffffffffffffffffffffffffffffffffff1673ffffffffffffffffffffffffffffffffffffffff166370a08231306040518263ffffffff1660e01b8152600401808273ffffffffffffffffffffffffffffffffffffffff16815260200191505060206040518083038186803b15801561025d57600080fd5b505afa158015610271573d6000803e3d6000fd5b505050506040513d602081101561028757600080fd5b8101908080519060200190929190505050600454610729565b905090565b806102ae6101cf565b101580156102be57506005548111155b610330576040517f08c379a00000000000000000000000000000000000000000000000000000000081526004018080602001828103825260108152602001807f42657420697320746f6f206c617267650000000000000000000000000000000081525060200191505060405180910390fd5b600080600260009054906101000a900473ffffffffffffffffffffffffffffffffffffffff1673ffffffffffffffffffffffffffffffffffffffff16638466e59c6040518163ffffffff1660e01b81526004016040805180830381600087803b15801561039c57600080fd5b505af11580156103b0573d6000803e3d6000fd5b505050506040513d60408110156103c657600080fd5b810190808051906020019092919080519060200190929190505050915091506000600d8363ffffffff16816103f757fe5b0690506000600d8363ffffffff168161040c57fe5b06905060008163ffffffff168363ffffffff1610905060008161043057600061043d565b61043c876003546107ac565b5b90507f9ddf436c1e6c1c797d80359f66cf0925adf4db7863879bd66c762ef07e5fb80333888385888842604051808873ffffffffffffffffffffffffffffffffffffffff16815260200187815260200186815260200185151581526020018463ffffffff1681526020018363ffffffff16815260200182815260200197505050505050505060405180910390a160008111156105b057600160009054906101000a900473ffffffffffffffffffffffffffffffffffffffff1673ffffffffffffffffffffffffffffffffffffffff1663a9059cbb3361051c848b610729565b6040518363ffffffff1660e01b8152600401808373ffffffffffffffffffffffffffffffffffffffff16815260200182815260200192505050602060405180830381600087803b15801561056f57600080fd5b505af1158015610583573d6000803e3d6000fd5b505050506040513d602081101561059957600080fd5b81019080805190602001909291905050505061069e565b600160009054906101000a900473ffffffffffffffffffffffffffffffffffffffff1673ffffffffffffffffffffffffffffffffffffffff166323b872dd33308a6040518463ffffffff1660e01b8152600401808473ffffffffffffffffffffffffffffffffffffffff1681526020018373ffffffffffffffffffffffffffffffffffffffff1681526020018281526020019350505050602060405180830381600087803b15801561066157600080fd5b505af1158015610675573d6000803e3d6000fd5b505050506040513d602081101561068b57600080fd5b8101908080519060200190929190505050505b50505050505050565b600160009054906101000a900473ffffffffffffffffffffffffffffffffffffffff1681565b600260009054906101000a900473ffffffffffffffffffffffffffffffffffffffff1681565b60035481565b60055481565b60045481565b60008054906101000a900473ffffffffffffffffffffffffffffffffffffffff1681565b6000828211156107a1576040517f08c379a000000000000000000000000000000000000000000000000000000000815260040180806020018281038252601e8152602001807f536166654d6174683a207375627472616374696f6e206f766572666c6f77000081525060200191505060405180910390fd5b818303905092915050565b6000808314156107bf576000905061082c565b60008284029050828482816107d057fe5b0414610827576040517f08c379a00000000000000000000000000000000000000000000000000000000081526004018080602001828103825260218152602001806108336021913960400191505060405180910390fd5b809150505b9291505056fe536166654d6174683a206d756c7469706c69636174696f6e206f766572666c6f77a2646970667358221220c9b51cbfb9c1fc2fbf145f72c3ff91b64783d95c2fedcaa8e02d2708f102c72d64736f6c63430007060033",
  "immutableReferences": {},
  "source": "// SPDX-License-Identifier: MIT\npragma solidity ^0.7.4;\n\nimport \"@openzeppelin/contracts/math/SafeMath.sol\";\nimport \"./CasinoToken.sol\";\nimport \"./IRandomNumberOracle.sol\";\n\ncontract Casino {\n  event PlayEvent (\n    address player,\n    uint bet,\n    uint payout,\n    bool hasPlayerWon,\n    uint32 casinoCard,\n    uint32 playerCard,\n    uint date\n  );\n\n  address public admin;\n  CasinoToken public casinoToken;\n  IRandomNumberOracle public randomNumberOracle;\n  uint public payoutFactor;\n  uint public safetyAmount;\n  uint public maxBetAmount;\n  \n  constructor(address casinoTokenAddress, address randomNumberOracleAddress, uint payout, uint safety, uint maxBet) {\n    admin = msg.sender;\n    casinoToken = CasinoToken(casinoTokenAddress);\n    randomNumberOracle = IRandomNumberOracle(randomNumberOracleAddress);\n    payoutFactor = payout;\n    safetyAmount = safety;\n    maxBetAmount = maxBet;\n  }\n\n  function play(uint bet) public {\n    require(getCasinoBalance() >= bet && bet <= maxBetAmount, 'Bet is too large');\n\n    (uint32 casinoValue, uint32 playerValue) = randomNumberOracle.getRandomNumberPair();\n\n    uint32 casinoCard = casinoValue % 13; // values 0..12 -> 0 = 2, 12 = Ace\n    uint32 playerCard = playerValue % 13;\n\n    bool hasPlayerWon = casinoCard < playerCard;\n    uint payout = hasPlayerWon ? SafeMath.mul(bet, payoutFactor) : 0;\n\n    emit PlayEvent(msg.sender, bet, payout, hasPlayerWon, casinoCard, playerCard, block.timestamp);\n\n    if (payout > 0) {\n      casinoToken.transfer(msg.sender, SafeMath.sub(payout, bet));\n    } else {\n      casinoToken.transferFrom(msg.sender, address(this), bet);\n    }\n  }\n\n  function getCasinoBalance() public view returns (uint) {\n    return SafeMath.sub(casinoToken.balanceOf(address(this)), safetyAmount);\n  }\n}",
  "sourcePath": "/Users/hagenschupp/Documents/Projekte/Ethereum/TokenCasino/contract/contracts/Casino.sol",
  "compiler": {
    "name": "solc",
    "version": "0.7.6+commit.7338295f.Emscripten.clang"
  },
  "schemaVersion": "3.3.4",
  "updatedAt": "2021-03-16T22:51:03.971Z",
  "devdoc": {
    "kind": "dev",
    "methods": {},
    "version": 1
  },
  "userdoc": {
    "kind": "user",
    "methods": {},
    "version": 1
  }
}