{
  "contractName": "Casino",
  "abi": [
    {
      "inputs": [
        {
          "internalType": "address",
          "name": "casinoTokenAddress",
          "type": "address"
        },
        {
          "internalType": "address",
          "name": "randomNumberOracleAddress",
          "type": "address"
        },
        {
          "internalType": "uint256",
          "name": "payout",
          "type": "uint256"
        },
        {
          "internalType": "uint256",
          "name": "safety",
          "type": "uint256"
        },
        {
          "internalType": "uint256",
          "name": "maxBet",
          "type": "uint256"
        }
      ],
      "stateMutability": "nonpayable",
      "type": "constructor"
    },
    {
      "anonymous": false,
      "inputs": [
        {
          "indexed": false,
          "internalType": "address",
          "name": "player",
          "type": "address"
        },
        {
          "indexed": false,
          "internalType": "uint256",
          "name": "bet",
          "type": "uint256"
        },
        {
          "indexed": false,
          "internalType": "uint256",
          "name": "payout",
          "type": "uint256"
        },
        {
          "indexed": false,
          "internalType": "bool",
          "name": "hasPlayerWon",
          "type": "bool"
        },
        {
          "indexed": false,
          "internalType": "uint32",
          "name": "casinoCard",
          "type": "uint32"
        },
        {
          "indexed": false,
          "internalType": "uint32",
          "name": "playerCard",
          "type": "uint32"
        },
        {
          "indexed": false,
          "internalType": "uint256",
          "name": "date",
          "type": "uint256"
        }
      ],
      "name": "PlayEvent",
      "type": "event"
    },
    {
      "inputs": [],
      "name": "admin",
      "outputs": [
        {
          "internalType": "address",
          "name": "",
          "type": "address"
        }
      ],
      "stateMutability": "view",
      "type": "function"
    },
    {
      "inputs": [],
      "name": "casinoToken",
      "outputs": [
        {
          "internalType": "contract CasinoToken",
          "name": "",
          "type": "address"
        }
      ],
      "stateMutability": "view",
      "type": "function"
    },
    {
      "inputs": [],
      "name": "maxBetAmount",
      "outputs": [
        {
          "internalType": "uint256",
          "name": "",
          "type": "uint256"
        }
      ],
      "stateMutability": "view",
      "type": "function"
    },
    {
      "inputs": [],
      "name": "payoutFactor",
      "outputs": [
        {
          "internalType": "uint256",
          "name": "",
          "type": "uint256"
        }
      ],
      "stateMutability": "view",
      "type": "function"
    },
    {
      "inputs": [],
      "name": "randomNumberOracle",
      "outputs": [
        {
          "internalType": "contract IRandomNumberOracle",
          "name": "",
          "type": "address"
        }
      ],
      "stateMutability": "view",
      "type": "function"
    },
    {
      "inputs": [],
      "name": "safetyAmount",
      "outputs": [
        {
          "internalType": "uint256",
          "name": "",
          "type": "uint256"
        }
      ],
      "stateMutability": "view",
      "type": "function"
    },
    {
      "inputs": [
        {
          "internalType": "uint256",
          "name": "bet",
          "type": "uint256"
        }
      ],
      "name": "play",
      "outputs": [],
      "stateMutability": "nonpayable",
      "type": "function"
    },
    {
      "inputs": [],
      "name": "getCasinoBalance",
      "outputs": [
        {
          "internalType": "uint256",
          "name": "",
          "type": "uint256"
        }
      ],
      "stateMutability": "view",
      "type": "function"
    }
  ],
  "bytecode": "0x608060405234801561001057600080fd5b50604051610c70380380610c70833981810160405260a081101561003357600080fd5b810190808051906020019092919080519060200190929190805190602001909291908051906020019092919080519060200190929190505050336000806101000a81548173ffffffffffffffffffffffffffffffffffffffff021916908373ffffffffffffffffffffffffffffffffffffffff16021790555084600160006101000a81548173ffffffffffffffffffffffffffffffffffffffff021916908373ffffffffffffffffffffffffffffffffffffffff16021790555083600260006101000a81548173ffffffffffffffffffffffffffffffffffffffff021916908373ffffffffffffffffffffffffffffffffffffffff1602179055508260038190555081600481905550806005819055505050505050610b19806101576000396000f3fe608060405234801561001057600080fd5b50600436106100885760003560e01c80639c2154781161005b5780639c21547814610141578063cab11d5d1461015f578063cf2142931461017d578063f851a4401461019b57610088565b80631a0843c01461008d5780636898f82b146100ab57806371d05375146100d95780638f91e7241461010d575b600080fd5b6100956101cf565b6040518082815260200191505060405180910390f35b6100d7600480360360208110156100c157600080fd5b81019080803590602001909291905050506102a5565b005b6100e1610937565b604051808273ffffffffffffffffffffffffffffffffffffffff16815260200191505060405180910390f35b61011561095d565b604051808273ffffffffffffffffffffffffffffffffffffffff16815260200191505060405180910390f35b610149610983565b6040518082815260200191505060405180910390f35b610167610989565b6040518082815260200191505060405180910390f35b61018561098f565b6040518082815260200191505060405180910390f35b6101a3610995565b604051808273ffffffffffffffffffffffffffffffffffffffff16815260200191505060405180910390f35b60006102a0600160009054906101000a900473ffffffffffffffffffffffffffffffffffffffff1673ffffffffffffffffffffffffffffffffffffffff166370a08231306040518263ffffffff1660e01b8152600401808273ffffffffffffffffffffffffffffffffffffffff16815260200191505060206040518083038186803b15801561025d57600080fd5b505afa158015610271573d6000803e3d6000fd5b505050506040513d602081101561028757600080fd5b81019080805190602001909291905050506004546109b9565b905090565b806102ae6101cf565b101580156102be57506005548111155b610330576040517f08c379a00000000000000000000000000000000000000000000000000000000081526004018080602001828103825260108152602001807f42657420697320746f6f206c617267650000000000000000000000000000000081525060200191505060405180910390fd5b80600160009054906101000a900473ffffffffffffffffffffffffffffffffffffffff1673ffffffffffffffffffffffffffffffffffffffff166370a08231336040518263ffffffff1660e01b8152600401808273ffffffffffffffffffffffffffffffffffffffff16815260200191505060206040518083038186803b1580156103ba57600080fd5b505afa1580156103ce573d6000803e3d6000fd5b505050506040513d60208110156103e457600080fd5b81019080805190602001909291905050501015610469576040517f08c379a000000000000000000000000000000000000000000000000000000000815260040180806020018281038252601b8152602001807f426574206578636565647320706c61796572732062616c616e6365000000000081525060200191505060405180910390fd5b80600160009054906101000a900473ffffffffffffffffffffffffffffffffffffffff1673ffffffffffffffffffffffffffffffffffffffff1663dd62ed3e33306040518363ffffffff1660e01b8152600401808373ffffffffffffffffffffffffffffffffffffffff1681526020018273ffffffffffffffffffffffffffffffffffffffff1681526020019250505060206040518083038186803b15801561051157600080fd5b505afa158015610525573d6000803e3d6000fd5b505050506040513d602081101561053b57600080fd5b810190808051906020019092919050505010156105c0576040517f08c379a000000000000000000000000000000000000000000000000000000000815260040180806020018281038252601d8152602001807f426574206578636565647320706c617965727320616c6c6f77616e636500000081525060200191505060405180910390fd5b600080600260009054906101000a900473ffffffffffffffffffffffffffffffffffffffff1673ffffffffffffffffffffffffffffffffffffffff16638466e59c6040518163ffffffff1660e01b81526004016040805180830381600087803b15801561062c57600080fd5b505af1158015610640573d6000803e3d6000fd5b505050506040513d604081101561065657600080fd5b810190808051906020019092919080519060200190929190505050915091506000600d8363ffffffff168161068757fe5b0690506000600d8363ffffffff168161069c57fe5b06905060008163ffffffff168363ffffffff161090506000816106c05760006106cd565b6106cc87600354610a3c565b5b90507f9ddf436c1e6c1c797d80359f66cf0925adf4db7863879bd66c762ef07e5fb80333888385888842604051808873ffffffffffffffffffffffffffffffffffffffff16815260200187815260200186815260200185151581526020018463ffffffff1681526020018363ffffffff16815260200182815260200197505050505050505060405180910390a1600081111561084057600160009054906101000a900473ffffffffffffffffffffffffffffffffffffffff1673ffffffffffffffffffffffffffffffffffffffff1663a9059cbb336107ac848b6109b9565b6040518363ffffffff1660e01b8152600401808373ffffffffffffffffffffffffffffffffffffffff16815260200182815260200192505050602060405180830381600087803b1580156107ff57600080fd5b505af1158015610813573d6000803e3d6000fd5b505050506040513d602081101561082957600080fd5b81019080805190602001909291905050505061092e565b600160009054906101000a900473ffffffffffffffffffffffffffffffffffffffff1673ffffffffffffffffffffffffffffffffffffffff166323b872dd33308a6040518463ffffffff1660e01b8152600401808473ffffffffffffffffffffffffffffffffffffffff1681526020018373ffffffffffffffffffffffffffffffffffffffff1681526020018281526020019350505050602060405180830381600087803b1580156108f157600080fd5b505af1158015610905573d6000803e3d6000fd5b505050506040513d602081101561091b57600080fd5b8101908080519060200190929190505050505b50505050505050565b600160009054906101000a900473ffffffffffffffffffffffffffffffffffffffff1681565b600260009054906101000a900473ffffffffffffffffffffffffffffffffffffffff1681565b60035481565b60055481565b60045481565b60008054906101000a900473ffffffffffffffffffffffffffffffffffffffff1681565b600082821115610a31576040517f08c379a000000000000000000000000000000000000000000000000000000000815260040180806020018281038252601e8152602001807f536166654d6174683a207375627472616374696f6e206f766572666c6f77000081525060200191505060405180910390fd5b818303905092915050565b600080831415610a4f5760009050610abc565b6000828402905082848281610a6057fe5b0414610ab7576040517f08c379a0000000000000000000000000000000000000000000000000000000008152600401808060200182810382526021815260200180610ac36021913960400191505060405180910390fd5b809150505b9291505056fe536166654d6174683a206d756c7469706c69636174696f6e206f766572666c6f77a2646970667358221220f9afcf1386f75c924e2a52961890aca1ca3ac50f130cfa991a1ea56d3da49dd364736f6c63430007060033",
  "immutableReferences": {},
  "source": "// SPDX-License-Identifier: MIT\npragma solidity ^0.7.4;\n\nimport \"@openzeppelin/contracts/math/SafeMath.sol\";\nimport \"./CasinoToken.sol\";\nimport \"./IRandomNumberOracle.sol\";\n\ncontract Casino {\n  event PlayEvent (\n    address player,\n    uint bet,\n    uint payout,\n    bool hasPlayerWon,\n    uint32 casinoCard,\n    uint32 playerCard,\n    uint date\n  );\n\n  address public admin;\n  CasinoToken public casinoToken;\n  IRandomNumberOracle public randomNumberOracle;\n  uint public payoutFactor;\n  uint public safetyAmount;\n  uint public maxBetAmount;\n  \n  constructor(address casinoTokenAddress, address randomNumberOracleAddress, uint payout, uint safety, uint maxBet) {\n    admin = msg.sender;\n    casinoToken = CasinoToken(casinoTokenAddress);\n    randomNumberOracle = IRandomNumberOracle(randomNumberOracleAddress);\n    payoutFactor = payout;\n    safetyAmount = safety;\n    maxBetAmount = maxBet;\n  }\n\n  function play(uint bet) external {\n    require(getCasinoBalance() >= bet && bet <= maxBetAmount, 'Bet is too large');\n    require(casinoToken.balanceOf(msg.sender) >= bet, 'Bet exceeds players balance');\n    require(casinoToken.allowance(msg.sender, address(this)) >= bet, 'Bet exceeds players allowance');\n\n    (uint32 casinoValue, uint32 playerValue) = randomNumberOracle.getRandomNumberPair();\n\n    uint32 casinoCard = casinoValue % 13; // values 0..12 -> 0 = 2, 12 = Ace\n    uint32 playerCard = playerValue % 13;\n\n    bool hasPlayerWon = casinoCard < playerCard;\n    uint payout = hasPlayerWon ? SafeMath.mul(bet, payoutFactor) : 0;\n\n    emit PlayEvent(msg.sender, bet, payout, hasPlayerWon, casinoCard, playerCard, block.timestamp);\n\n    if (payout > 0) {\n      casinoToken.transfer(msg.sender, SafeMath.sub(payout, bet));\n    } else {\n      casinoToken.transferFrom(msg.sender, address(this), bet);\n    }\n  }\n\n  function getCasinoBalance() public view returns (uint) {\n    return SafeMath.sub(casinoToken.balanceOf(address(this)), safetyAmount);\n  }\n}",
  "sourcePath": "/Users/hagenschupp/Documents/Projekte/Ethereum/TokenCasino/contract/contracts/Casino.sol",
  "compiler": {
    "name": "solc",
    "version": "0.7.6+commit.7338295f.Emscripten.clang"
  },
  "schemaVersion": "3.3.4",
  "updatedAt": "2021-03-17T09:26:08.417Z",
  "devdoc": {
    "kind": "dev",
    "methods": {},
    "version": 1
  },
  "userdoc": {
    "kind": "user",
    "methods": {},
    "version": 1
  }
}