{
  "contractName": "Owned",
  "abi": [
    {
      "inputs": [],
      "name": "admin",
      "outputs": [
        {
          "internalType": "address",
          "name": "",
          "type": "address"
        }
      ],
      "stateMutability": "view",
      "type": "function"
    }
  ],
  "bytecode": "0x6080604052336000806101000a81548173ffffffffffffffffffffffffffffffffffffffff021916908373ffffffffffffffffffffffffffffffffffffffff16021790555034801561005057600080fd5b5060b98061005f6000396000f3fe6080604052348015600f57600080fd5b506004361060285760003560e01c8063f851a44014602d575b600080fd5b6033605f565b604051808273ffffffffffffffffffffffffffffffffffffffff16815260200191505060405180910390f35b60008054906101000a900473ffffffffffffffffffffffffffffffffffffffff168156fea2646970667358221220d2f62ca91adf32fb24d95427025554bbecdd8633489cb99505c2674135bab8ef64736f6c63430007060033",
  "immutableReferences": {},
  "source": "// SPDX-License-Identifier: MIT\npragma solidity ^0.7.4;\n\ncontract Owned {\n  address public admin = msg.sender;\n\n  modifier onlyAdmin {\n    require(msg.sender == admin, 'Only the admin is allowed to call this operation');\n    _;\n  }\n}",
  "sourcePath": "/Users/hagenschupp/Documents/Projekte/Ethereum/TokenCasino/contract/contracts/Owned.sol",
  "compiler": {
    "name": "solc",
    "version": "0.7.6+commit.7338295f.Emscripten.clang"
  },
  "schemaVersion": "3.3.4",
  "updatedAt": "2021-03-17T09:26:08.430Z",
  "devdoc": {
    "kind": "dev",
    "methods": {},
    "version": 1
  },
  "userdoc": {
    "kind": "user",
    "methods": {},
    "version": 1
  }
}