{
  "contractName": "RandomNumberOracle",
  "abi": [
    {
      "inputs": [
        {
          "internalType": "uint32",
          "name": "initialSeed",
          "type": "uint32"
        }
      ],
      "stateMutability": "nonpayable",
      "type": "constructor"
    },
    {
      "anonymous": false,
      "inputs": [
        {
          "indexed": false,
          "internalType": "uint256",
          "name": "date",
          "type": "uint256"
        }
      ],
      "name": "SeedUpdated",
      "type": "event"
    },
    {
      "inputs": [],
      "name": "admin",
      "outputs": [
        {
          "internalType": "address",
          "name": "",
          "type": "address"
        }
      ],
      "stateMutability": "view",
      "type": "function"
    },
    {
      "inputs": [
        {
          "internalType": "uint32",
          "name": "newSeed",
          "type": "uint32"
        }
      ],
      "name": "setSeed",
      "outputs": [],
      "stateMutability": "nonpayable",
      "type": "function"
    },
    {
      "inputs": [],
      "name": "getRandomNumberPair",
      "outputs": [
        {
          "internalType": "uint32",
          "name": "",
          "type": "uint32"
        },
        {
          "internalType": "uint32",
          "name": "",
          "type": "uint32"
        }
      ],
      "stateMutability": "nonpayable",
      "type": "function"
    },
    {
      "inputs": [],
      "name": "getRandomNumber",
      "outputs": [
        {
          "internalType": "uint32",
          "name": "",
          "type": "uint32"
        }
      ],
      "stateMutability": "nonpayable",
      "type": "function"
    }
  ],
  "bytecode": "0x608060405234801561001057600080fd5b506040516105053803806105058339818101604052602081101561003357600080fd5b8101908080519060200190929190505050336000806101000a81548173ffffffffffffffffffffffffffffffffffffffff021916908373ffffffffffffffffffffffffffffffffffffffff16021790555080600060146101000a81548163ffffffff021916908363ffffffff16021790555050610450806100b56000396000f3fe608060405234801561001057600080fd5b506004361061004c5760003560e01c80638466e59c14610051578063af8ef3f114610082578063dbdff2c1146100b6578063f851a440146100da575b600080fd5b61005961010e565b604051808363ffffffff1681526020018263ffffffff1681526020019250505060405180910390f35b6100b46004803603602081101561009857600080fd5b81019080803563ffffffff169060200190929190505050610129565b005b6100be610228565b604051808263ffffffff16815260200191505060405180910390f35b6100e2610296565b604051808273ffffffffffffffffffffffffffffffffffffffff16815260200191505060405180910390f35b600080610119610228565b610121610228565b915091509091565b60008054906101000a900473ffffffffffffffffffffffffffffffffffffffff1673ffffffffffffffffffffffffffffffffffffffff163373ffffffffffffffffffffffffffffffffffffffff16146101cd576040517f08c379a00000000000000000000000000000000000000000000000000000000081526004018080602001828103825260308152602001806103eb6030913960400191505060405180910390fd5b7f402617e7441de744169eb6273dd5ee5e27ca13cf90bcd49c21314ac8a983955b426040518082815260200191505060405180910390a180600060146101000a81548163ffffffff021916908363ffffffff16021790555050565b60008063ffffffff61026b610261600060149054906101000a900463ffffffff1663ffffffff1667ffffffffffffffff1661bc8f6102ba565b637fffffff610340565b16905080600060146101000a81548163ffffffff021916908363ffffffff1602179055508091505090565b60008054906101000a900473ffffffffffffffffffffffffffffffffffffffff1681565b6000808314156102cd576000905061033a565b60008284029050828482816102de57fe5b0414610335576040517f08c379a00000000000000000000000000000000000000000000000000000000081526004018080602001828103825260218152602001806103ca6021913960400191505060405180910390fd5b809150505b92915050565b60008082116103b7576040517f08c379a00000000000000000000000000000000000000000000000000000000081526004018080602001828103825260188152602001807f536166654d6174683a206d6f64756c6f206279207a65726f000000000000000081525060200191505060405180910390fd5b8183816103c057fe5b0690509291505056fe536166654d6174683a206d756c7469706c69636174696f6e206f766572666c6f774f6e6c79207468652061646d696e20697320616c6c6f77656420746f2063616c6c2074686973206f7065726174696f6ea2646970667358221220629756cebb9269118835d35a3f46505906b237082115ad9e441768270933f81264736f6c63430007060033",
  "immutableReferences": {},
  "source": "// SPDX-License-Identifier: MIT\npragma solidity ^0.7.4;\n\nimport \"@openzeppelin/contracts/math/SafeMath.sol\";\nimport \"./IRandomNumberOracle.sol\";\n\ncontract RandomNumberOracle is IRandomNumberOracle {\n  event SeedUpdated (\n    uint date\n  );\n\n  address public admin;\n  uint32 private _seed;\n\n  constructor(uint32 initialSeed) {\n    admin = msg.sender;\n    _seed = initialSeed; \n  }\n\n  function setSeed(uint32 newSeed) public {\n    require(msg.sender == admin, 'Only the admin is allowed to call this operation');\n    emit SeedUpdated(block.timestamp);\n    _seed = newSeed;\n  }\n\n  function getRandomNumberPair() public override returns (uint32, uint32) {\n    return (getRandomNumber(), getRandomNumber());\n  }\n\n  function getRandomNumber() public returns (uint32) {\n    // https://en.wikipedia.org/wiki/Lehmer_random_number_generator#Sample_C99_code\n    uint32 value = uint32(SafeMath.mod(SafeMath.mul(uint64(_seed), 48271), 0x7fffffff) & 0xffffffff);\n    _seed = value;\n    return value;\n  }\n}",
  "sourcePath": "/Users/hagenschupp/Documents/Projekte/Ethereum/TokenCasino/contract/contracts/RandomNumberOracle.sol",
  "compiler": {
    "name": "solc",
    "version": "0.7.6+commit.7338295f.Emscripten.clang"
  },
  "schemaVersion": "3.3.4",
  "updatedAt": "2021-03-16T23:03:46.190Z",
  "devdoc": {
    "kind": "dev",
    "methods": {},
    "version": 1
  },
  "userdoc": {
    "kind": "user",
    "methods": {},
    "version": 1
  }
}